:020000040800F2
:10000000A80D002001010008EB17000843160008A6
:10001000E9170008B9010008AD1D00080000000044
:100020000000000000000000000000001919000896
:10003000F301000800000000ED1700081B1900087C
:100040001B0100081B0100081B0100081B01000820
:100050001B0100081B0100081B010008F501000836
:10006000FB0100081B0100081B0100081B01000820
:100070001B0100081B0100081B010008BD0100084E
:100080001B0100081B0100081B0100081B010008E0
:100090001B0100081B0100081B0100081B010008D0
:1000A0001B0100081B0100081B0100081B010008C0
:1000B0001B0100081B010008000000001B010008D4
:1000C0001B01000800000000000000001B010008E8
:1000D000000000001B0100081B01000800000000D8
:1000E0001B0100081B0100081B010008DFF80CD0F1
:1000F00000F050F800480047FD200008A80D00203F
:100100000648804706480047FEE7FEE7FEE7FEE7B1
:10011000FEE7FEE7FEE7FEE7FEE7FEE77D190008E3
:10012000ED000008202A04DB203A21FA02F0002129
:10013000704721FA02F3D040C2F1200291400843F7
:1001400019467047D2B201E000F8012B491EFBD2DC
:1001500070470022F6E710B513460A4604461946D2
:10016000FFF7F0FF204610BD30B50B4601460020DA
:100170002022012409E021FA02F59D4205D303FA69
:1001800002F5491B04FA02F52844151EA2F10102EA
:10019000F1DC30BD064C074D06E0E06840F001039D
:1001A00094E8070098471034AC42F6D3FFF7A2FF5B
:1001B0007C2400089C240008FEE70000014800F0B1
:1001C000E5B80000C400002030B590F8405001248C
:1001D000AC40C56B6C60046863604368102B0368B7
:1001E00003D099600068C26030BD9A600068C16049
:1001F00030BD7047022000F073BA042000F070BADE
:1002000072B6FEE7044B0022DA61044A136943F038
:10021000010313610180704750010020002002405B
:1002200014480022C168CB06134904D5CA6942F0BC
:100230000202CA611022C3685B0705D5CB6943F08F
:100240000103CB6142F00402C369DB0707D0CB692D
:1002500043F00403CB61C16921F00101C161A2F542
:100260008071013901D0C2607047C16921F001017C
:10027000C1617047002002405001002070B5054662
:1002800000F020FB0646114C09E0681C07D025B1A0
:1002900000F018FB801BA84201D9032070BDE06864
:1002A000C007F2D1E068800601D52020E060E06858
:1002B000C00605D4E069C00702D1E068400703D555
:1002C000FFF7AEFF012070BD002070BD002002408E
:1002D000064A0021D16106490A6942F002020A6118
:1002E0004861086940F040000861704770010020D3
:1002F0000020024010B590F821100024022903D0FC
:100300000421816301243DE001680A6822F00E02A5
:100310000A6001680A6822F001020A601A4A01684C
:10032000914201D1012121E0174A1432914201D1B9
:1003300010211BE0144A2832914201D1891515E0A1
:10034000114A3C32914201D189140FE00E4A5032D9
:10035000914202D14FF4803108E00B4A643291425D
:1003600002D14FF4801101E04FF08071064A083A43
:100370005160012180F82110002180F82010416B8C
:1003800001B18847204610BD080002402DE9F05F0A
:10039000C16B0C6801680B68D0F840C0042202FAF7
:1003A0000CF2494DDFF824A1494E4A4FDFF828B13D
:1003B000DFF828E122422CD05A072AD50A68920693
:1003C00003D40A6822F004020A600168A94201D13C
:1003D000042219E0514501D1402215E0B14202D179
:1003E0004FF4806210E0B94202D14FF480420BE03A
:1003F000594502D14FF4802206E0714502D14FF4F5
:10040000800201E04FF080622F4908394A60C16ADA
:100410003BE04FF0020808FA0CF818EA040F4FF01E
:1004200000094FF0010235D05FEA837832D50B68BE
:100430009B0605D40B6823F00A030B6080F821208B
:100440000168A94201D1022219E0514501D12022BF
:1004500015E0B14202D14FF4007210E0B94202D16E
:100460004FF400520BE0594502D14FF4003206E040
:10047000714502D14FF4001201E04FF000721249B1
:1004800008394A6080F82090816A00291AD0BDE8B6
:10049000F05F0847082505FA0CF5254212D01B0726
:1004A00010D50B6823F00E030B6090F84010C36B5F
:1004B00002FA01F15960826380F8212080F82090CF
:1004C000016BE2E7BDE8F09F080002401C0002401B
:1004D0003000024044000240580002406C000240DC
:1004E00030B528B308C8134914221944B1FBF2F1FE
:1004F0008900C16310498163022141771A6843F67C
:10050000F0718A43D0E900142143D0E902452C431D
:1005100021430469214344692143846921431143F0
:10052000196000214163012242770177084630BDFE
:10053000012030BDF8FFFDBF0000024070B5044649
:1005400090F82000002501280CD0012084F820001C
:1005500094F821600020012E06D084F820000225A6
:10056000284670BD022070BD022684F82160A06379
:100570002068066826F0010606602046FFF724FE84
:10058000E06A00282068016802D041F00E0106E010
:1005900021F0040101602068016841F00A01016056
:1005A0002068016841F001010160D9E770B5044697
:1005B00000F088F90546601C02D004480078044425
:1005C00000F080F9401BA042FAD370BD2800002043
:1005D0000348016941F0800101610020704700007B
:1005E000002002402DE9F05F07461C4888460024A1
:1005F000017E15461E46012909D00121814601765A
:100600004CF2503A5046FFF739FE18B122E0022072
:10061000BDE8F09F012F02D0022F00D00427D3465F
:10062000DFF83CA0220128463146FFF77BFD81B26E
:1006300008EB4400FFF7E6FD5846FFF71FFEDAF827
:10064000102022F00102CAF8102018B9641CE4B28C
:10065000BC42E7D3002289F81820D9E750010020D6
:1006600000200240064900200A69120607D5054A03
:100670004A60054A4A600969090600D501207047A9
:100680000020024023016745AB89EFCD10B5044639
:100690000A20FFF78BFF21460BA001F049FC0E4812
:1006A0000E4B4FF40051022C09D0042C0AD1022227
:1006B00002800022BDE81040184600F0FDB801227B
:1006C0000280F7E710BD00004750494F5F50696E48
:1006D000202564200D0A00000000002000100140C9
:1006E000044910B50A68024202D00860FFF7CEFF45
:1006F00010BD0000140401402DE9F84FDFF89C9173
:10070000002409F1040A0AF1040B23460F270BF118
:10071000040EBBE00125A5402A40AA4276D1DFF8AD
:1007200080C14E68A6EB0C0866452BD00DDC032E6D
:1007300034D005DC36B3012E19D0022E2FD11BE0A8
:10074000112E16D0122E2AD119E0B8F5881F19D013
:1007500006DCB8F5803F15D0B8F5801F1FD111E039
:10076000B8F5001F0ED0B8F5041F18D10AE0CB6809
:1007700015E0CB681B1D12E0CB6808330FE0CB6897
:100780000C330CE08B682BB1012B4FF0080303D026
:10079000456104E0042302E0056100E00023FF2A34
:1007A00001D8064601E000F104064FEA840501D9AC
:1007B000A5F12005D6F8008007FA05FC28EA0C0808
:1007C00003FA05F548EA0508C6F800804D68ED0013
:1007D0005BD5344DAE6946F00106AE61AD6924F0DB
:1007E000030605F0010500952F4D06EB050CDCF81E
:1007F0000850A607360F07FA06F825EA0805DFF8BD
:10080000AC80404503D14FF0000810E03DE0DFF838
:10081000A080404502D14FF0010808E0DFF8948045
:10082000404502D14FF0020801E04FF0030808FAFA
:1008300006F848EA0508CCF808804D68D9F8006049
:10084000ED034D4601D5164300E096432E604D68FA
:10085000DAF80060AD03554601D5164300E0964333
:100860002E604D68DBF80060ED025D4601D5164351
:1008700000E096432E604D68DEF80060AD027546DC
:1008800001D5164300E096432E60641C0A6832FAD4
:1008900004F57FF43FAFBDE8F88F0000000401408D
:1008A000000011100010024000000140000801404B
:1008B000000C0140001001400AB1016170470904B9
:1008C000FBE7000001488068704700002800002016
:1008D0000248816802781144816070472800002036
:1008E000074810B5016841F010010160032000F0D5
:1008F00075F8002000F006F800F024F8002010BD84
:100900000020024070B50D4D04464FF47A712878EE
:10091000B1FBF0F00A490968B1FBF0F000F0ECFA25
:1009200048B9102C07D200222146501E00F036F89C
:1009300000206C6070BD012070BD00002800002008
:10094000340000200C4808B5816941F00101816143
:10095000816901F001010091C16941F08051C161DB
:10096000C06900F0805000900448416821F0E061C7
:1009700041F00071416008BD0010024000000140DC
:10098000002809DB00F01F0201219140400980008E
:1009900000F1E020C0F8001170470000F0B40E4BE9
:1009A0001B680C46C3F30223C3F10705042D00D9CD
:1009B0000425191D072901D2002300E0DB1E0126B2
:1009C00006FA05F1491E214099409E40761E1640C8
:1009D0003143F0BC01F0BCBA0CED00E0064900F078
:1009E000070208684FF6FF03184040EA0220034A56
:1009F00010430860704700000CED00E00000FA05AD
:100A00002DE9F0470F46050061D0434E306800F0F5
:100A10000700B84209D2306820F007003843306040
:100A2000306800F00700B84251D128683B4C81077C
:100A300012D5400703D5606840F4E0606060287814
:100A4000000703D5606840F4605060606068A96882
:100A500020F0F000084360602878C00728D068685C
:100A6000012810D02168022810D0890700292EDA29
:100A7000616821F0030101436160FFF723FF8046B5
:100A800041F288390DE021688903EFE78901EDE73C
:100A9000FFF718FFA0EB0801494502D90320BDE884
:100AA000F0876068696800F00C00B0EB810FEFD14F
:100AB000306800F00700B8420BD9306820F007001A
:100AC00038433060306800F00700B84201D00120A0
:100AD000E5E72878400705D56068E96820F4E0601C
:100AE000084360602878000706D56068296920F40B
:100AF000605040EAC100606000F038F86168084A60
:100B0000C1F30311515CC8400649086006480068FB
:100B1000FFF7F8FE0020C2E700200240001002406C
:100B200064240008340000202C00002004480549FB
:100B300000684968044AC1F30221515CC84070470B
:100B400034000020001002407424000804480549C5
:100B500000684968044AC1F3C221515CC84070472B
:100B600034000020001002407424000812A185B057
:100B70000FC98DE80F0014A0144A00680490516852
:100B8000134801F00C03042B10D0082B0ED1C1F335
:100B90008343C9031DF803000AD5516804AAC1F3B1
:100BA0004041515C0A4A5043B0FBF1F005B0704738
:100BB00008494843FAE7000002030405060708094C
:100BC0000A0B0C0D0E0F1010010200000010024065
:100BD00000127A0000093D002DE9F84F040070D0A2
:100BE0002078C04DC00749D06868C0F38100012853
:100BF00007D06868C0F38100022809D16868C00383
:100C000006D52868800339D560680028E7D035E02C
:100C10006068B0F5803F0BD010B1B0F5A02F11D0B7
:100C2000286820F480302860286820F4802002E0C2
:100C3000286840F480302860606890B1FFF742FE79
:100C400006460AE0286840F480202860F0E700BFEC
:100C5000FFF738FE801B642873D828688003F7D517
:100C60000CE0FFF72FFE064605E000BFFFF72AFE67
:100C7000801B6428F0D828688003F7D420789A4E27
:100C800080074FF001094FF0000839D5686810F06F
:100C90000C0F07D06868C0F38100022809D168688A
:100CA000C00306D42868800714D52069012808D11C
:100CB00010E02069B0B1C6F80090FFF703FE0746C8
:100CC00005E00AE1FFF7FEFDC01B0228C4D8286832
:100CD0008007F7D52868616920F0F80040EAC10074
:100CE00028600DE0C6F80080FFF7ECFD074604E041
:100CF000FFF7E8FDC01B022823D828688007F7D437
:100D0000207800072CD57948A169D9B1C0F80090A6
:100D1000FFF7D8FD074604E0FFF7D4FDC01B02280B
:100D20000FD8686A8007F7D571484FF4FA51006808
:100D3000B0FBF1F0009000BF0098411E0091FAD284
:100D40000EE080E0C0F80080FFF7BCFD074604E03D
:100D5000FFF7B8FDC01B022875D8686A8007F7D472
:100D60002078400760D5E8690027C00008D4E8690A
:100D700040F08050E861E869012700F08050009061
:100D80005C480168C90513D40168834641F4807149
:100D90000160FFF797FD824606E000BFFFF792FD76
:100DA000A0EB0A0064284ED8DBF80000C005F5D59A
:100DB000E06801280AD008B1052813D0286A20F07D
:100DC00001002862286A20F0040002E0286A40F04E
:100DD00001002862E06841F2883B98B1FFF772FD9C
:100DE00082460BE0286A40F004002862EEE700BF6C
:100DF000FFF768FDA0EB0A0159455AD8286A800719
:100E0000F6D50CE0FFF75EFD824605E0FFF75AFDE0
:100E1000A0EB0A0159454CD8286A8007F6D41FB1C7
:100E2000E86920F08050E861E06988B36968C1F33F
:100E30008101022944D00228C6F8608004D0FFF75F
:100E400041FD044638E034E0FFF73CFD074604E08E
:100E5000FFF738FDC01B02282BD828688001F7D483
:100E6000206AB0F5803F05D16868A16820F40030A1
:100E700008436860D4E908010843696821F47411E3
:100E800008436860C6F86090FFF71CFD044606E062
:100E900025E000BFFFF716FD001B022809D82868CF
:100EA0008001F7D51BE000BFFFF70CFD001B0228F7
:100EB00002D90320BDE8F88F28688001F4D40EE041
:100EC0000128F7D06868226A00F48031914204D189
:100ED000616A00F47010884201D00120EAE7002026
:100EE000E8E7000000100240000042428004424255
:100EF000340000200070004010B5401EB0F1807F2B
:100F000001D3012010BD4FF0E02460610F21601774
:100F100001F01EF80020A06107202061002010BD14
:100F200070B590F83C20012A23D0012480F83C4081
:100F3000022280F83D2003685A689D6822F07006FE
:100F40000A6832435A600C4B02689A4205D0B2F1EB
:100F5000804F02D0094B9A4204D1496825F08003A2
:100F60001943916080F83D40002180F83C1008460C
:100F700070BD022070BD0000002C01400004004044
:100F800010B5040003D094F83D0010B107E0012033
:100F900010BD002084F83C00204600F01FF802201D
:100FA00084F83D00211D206800F0EAFC012084F84F
:100FB000460084F83E0084F83F0084F8400084F83E
:100FC000410084F8420084F8430084F8440084F827
:100FD000450084F83D00002010BD000038B50546EE
:100FE0000068B0F1804F20D11048C16941F0010183
:100FF000C161C0690F4C00F0010000900C482060F6
:101000001020606000208021C4E9020149002161B4
:10101000890061612021C4E906102046FFF760FACB
:1010200008B1FFF7EDF86C62656238BD0010024050
:1010300058000240C400002070B5044690F83C00FF
:10104000012817D0012584F83C50022084F83D0087
:101050002068826822F0770222F47F42826008686A
:10106000502830D00DDC20284DD005DC98B3102856
:101070003BD148E0022070BD302844D0402834D114
:1010800039E0602828D0702806D0B0F5805F2CD0D9
:10109000B0F5005F29D10AE0CB68D1E901212068D1
:1010A00000F01EFD2068816841F0770109E0CB68FF
:1010B000D1E90121206800F013FD2068816841F426
:1010C0008041816011E0CA684968206800F0BCFD79
:1010D0005021206807E016E0CA684968206800F0DF
:1010E000C4FD6021206800F005FD84F83D5000201B
:1010F00084F83C0070BDCA684968206800F0A4FD0F
:1011000040212068EFE7226801461046EBE7704770
:1011100000B585B000210091019102910391006812
:10112000B0F1804F11D10A48816941F00401816119
:101130008069694600F004000490012000900220BC
:10114000019003900348FFF7D7FA05B000BD0000F7
:10115000001002400008014070B5044690F83C00C1
:101160000D4601280AD0012084F83C0042B1042A2F
:1011700018D0082A2AD00C2A4DD139E0022070BD9F
:10118000206800F0BFFC2068816941F0080181619E
:101190002068816921F004018161206881692A69E0
:1011A000114311E0206800F0D5FC2068816941F40A
:1011B000006181612068816921F48061816120681A
:1011C00081692A6941EA0221816124E0206800F0F6
:1011D000EDFC2068C16941F00801C1612068C16966
:1011E00021F00401C1612068C1692A69114311E03D
:1011F000206800F007FD2068C16941F40061C16109
:101200002068C16921F48061C1612068C1692A69CF
:1012100041EA0221C161002084F83C0070BD10B594
:10122000040003D094F83D0010B107E0012010BD88
:10123000002084F83C00204600F01EF8022084F8CC
:101240003D00211D206800F09BFB012084F8460032
:1012500084F83E0084F83F0084F8400084F84100A0
:1012600084F8420084F8430084F8440084F8450080
:1012700084F83D00002010BD7047000000210148A7
:1012800000F0C0B87C000020704700002DE9F0415C
:1012900017460D0004460CD0042D11D0082D16D091
:1012A00094F84100022819D094F84100012818D080
:1012B00097E094F83E00022810D094F83E00F5E73D
:1012C00094F83F00022809D094F83F00EEE794F824
:1012D0004000022802D094F84000E7E70220BDE871
:1012E000F0810FB9002B7CD14149424E424A022085
:1012F00045B1042D16D0082D24D084F841000C2DC2
:101300003AD161E084F83E00606A8162606A3946E1
:10131000C662606A02632268606A3432FFF70EF9BF
:10132000F0BB1FE084F83F00A06A8162A06A3946E2
:10133000C662A06A02632268A06A3832FFF7FEF82C
:1013400070BB14E084F84000E06A8162E06A3946CC
:10135000C662E06A02632268E06A3C32FFF7EEF898
:10136000F0B92CE02068C16841F4007103E0206806
:10137000C16841F48061C16001222946206800F003
:101380002DFB1E492068884203D1426C42F4004282
:1013900042642068884207D0B0F1804F04D000E05A
:1013A0001FE01749884204D1816801F0070106292E
:1013B00003D0016841F00101016000208FE720683F
:1013C000C16841F40061D6E7206B8162206B394629
:1013D000C662206B02632268206B4032FFF7AEF8D2
:1013E00008B101207BE72068C16841F48051C2E761
:1013F000F7190008551A00088D1A0008002C014042
:101400000004004070B5044600680D0006D0042DAD
:101410000AD0082D3AD00C2D0DD13DE0C16821F441
:101420000071C160606A04E0C16821F48061C1603C
:10143000A06AFEF75FFF00222946206800F0CEFA7E
:101440001D4B41F2111120688A10984209D1036A9C
:101450000B4206D1036A134203D1436C23F40043C9
:1014600043642068036A0B4206D1016A114203D12A
:10147000016821F00101016001209DB1042D14D00B
:10148000082D15D084F84100002070BDC16821F4FA
:101490000061C160E06ACCE7C16821F48051C1609D
:1014A000206BC6E784F83E00EEE784F83F00EBE7E8
:1014B00084F84000E8E70000002C014070B504000B
:1014C00004D094F83D00002510B106E0012070BD65
:1014D00084F83C50204600F023F8242084F83D0096
:1014E0002068C16821F40051C160204600F0D0FBA3
:1014F0002068016921F4904101612068416921F06F
:101500002A0141612068C16841F40051C16025642D
:10151000202084F83D0084F83E00002070BD0000CB
:1015200030B585B0002400940194029403940068BF
:101530001449884224D11448816941F48041816171
:10154000816901F480410491816941F00401816164
:1015500080690E4D00F0040004904FF4007000907C
:10156000022001900320039069462846FFF7C4F843
:101570002815CDE90004694628460294FFF7BCF817
:1015800005B030BD003801400010024000080140A5
:101590002DE9F843044690F83D001F4616460D46D7
:1015A00020284CD1C5B1BEB194F83C00012846D0EA
:1015B000012084F83C004FF00008C4F8408021204E
:1015C00084F83D00FFF77EF9A6848146E684A06892
:1015D000B0F5805F03D004E00120BDE8F883206906
:1015E00028B12E465FF0000584F83C800EE000260E
:1015F000FAE78021204600F0A7FBA0B9AEB116F8AB
:10160000010B21684860E08C401EE084E08C4B4672
:101610004FF0000200970028EBD14FF04001204628
:1016200000F092FB30B10320D7E735F8020BC0F38E
:101630000800E6E7202084F83D000020CDE70220E6
:10164000CBE7FEE7094808B5416941F00101416176
:101650004069002200F00100009011460F20FFF7C2
:101660009DF9BDE808400F20FFF78AB9001002403D
:1016700070B586B000242548009401940294039428
:10168000816941F010018161816901F010010491CB
:10169000816941F020018161816901F0200104919B
:1016A000816941F0040181618069194E00F00400F4
:1016B0004FF400550490002229463046FFF7FCF80D
:1016C0000220CDE90240009501256946019530468A
:1016D000FFF712F8062000900E48CDE90105694693
:1016E0000D48FFF709F8002201210720FFF756F9FE
:1016F0000720FFF745F9002201210820FFF74EF9E6
:101700000820FFF73DF906B070BD00000010024050
:1017100000100140000021100008014010B58EB0FB
:1017200000240794089409940A940B941C21684699
:101730000C94FEF70EFD1D484FF08041C0E90014E7
:101740005921C0E9024104618461FFF719FC08B125
:10175000FEF756FD4FF48050079007A91348FFF796
:101760006BFC08B1FEF74CFD1048FFF758FD08B1BF
:10177000FEF746FD0B940BA90C480C94FFF7D0FB29
:1017800008B1FEF73DFD6020CDE90004029400227F
:10179000694606480494FFF7DFFC08B1FEF730FD08
:1017A0000248FFF7B5FC0EB010BD00007C00002021
:1017B0000C4810B50A4901604FF4E1314160002145
:1017C00081600C22C160C0E904128161C161FFF730
:1017D00075FE002803D0BDE81040FEF711BD10BD16
:1017E0000038014008010020FEE7FEE770470000D6
:1017F00010B5002306E000BF30F8024B21F813407B
:101800005B1C9BB29342F7D310BD00002DE9F05F43
:10181000A0F1006415468A468346B4F5803F5FD246
:10182000FEF720FFA70AC4F34806C6F50074A542D8
:1018300000D82C46DFF8AC904FF0006000EB87201A
:1018400080464FF400722749FFF7D2FF00204FF681
:10185000FF7106E0331839F813208A4203D1401C87
:1018600080B2A042F6D3A0422ED24046FEF730FD11
:101870004CF25030FEF702FD1B48016921F00201D5
:1018800001610020494606E03AF810208319401C07
:1018900021F8132080B2A042F6D3124940464FF4FB
:1018A000007200BF00F022F8A54215D0281B0AEBF9
:1018B000440A0BEB440B002685B24FF400747F1CE6
:1018C000A542B9D82C46B7E74CF25030FEF7D6FC0B
:1018D000224651465846E5E7BDE8F05FFEF778BE80
:1018E000BDE8F09F90010020002002402DE9F0416A
:1018F00016460F46054600240AE000BF37F81420BC
:10190000002329460120FEF76DFE641CA4B2AD1C25
:10191000B442F3D3BDE8F0817047FEF7D9BF30B5CC
:101920008FB028216846FEF714FC14210AA8FEF7A0
:1019300010FC01210804CDE90010002402940225C6
:101940000491CDE907504FF4E01009906846FFF785
:1019500043F908B172B6FEE70F20CDE90A054FF44E
:101960008060CDE90C4002210AA80E94FFF748F8E8
:10197000002801D072B6FEE70FB030BD70470000FE
:1019800070B50268134B144C4FF08046984203D058
:10199000B04201D0A04203D122F070054A682A4328
:1019A000984203D0B04201D0A04203D122F4407447
:1019B000CA6822434C6922F08002224302608A688E
:1019C000C2620A688262984201D1096901630121F9
:1019D000416170BD002C01400004004010B501F0D1
:1019E0001F030121046A99408C430462016A9A40F2
:1019F0001143016210BD10B5446A0121626A82423E
:101A000005D121778069F8B984F83E101CE0A26AFC
:101A1000824206D1022222778069A8B984F83F1059
:101A200012E0E26A824206D104222277806958B924
:101A300084F8401008E0226B824205D10822227708
:101A4000806908B984F841102046FFF717FC002090
:101A5000207710BD10B5446A616A814201D101202E
:101A60000DE0A16A814201D1022008E0E16A8142D1
:101A700001D1042003E0216B814201D108202077AD
:101A80002046FFF701FC0020207710BD10B5446A06
:101A90000121626A824203D1217784F83E1019E065
:101AA000A26A824204D10220207784F83F1011E01C
:101AB000E26A824204D10420207784F8401009E0D1
:101AC000226B824204D10820207784F8411001E083
:101AD00084F83D102046FFF71AFB0020207710BD48
:101AE00010B5846842EA032224F47F440A43224367
:101AF000826010BD826822F070020A4342F0070142
:101B00008160704730B5026A22F001020262026A07
:101B10004368846924F073050C682C4322F00205A5
:101B20008A682A430A4DA8420BD122F00805CA68E8
:101B300023F440732A434D6922F004021D438B694C
:101B40002B434360846149684163026230BD0000F9
:101B5000002C014030B5026A22F010020262026AD3
:101B6000436884690D6824F4E64444EA05248D68DA
:101B700022F0200242EA05120B4DA8420ED1CD6898
:101B800022F0800242EA05124D6923F4406343EAE1
:101B900085038D6922F0400243EA85034360846136
:101BA00049688163026230BD002C014030B5026A91
:101BB00022F480720262036A4268C46923F40073EB
:101BC00024F073050C682C438D6843EA05230C4D03
:101BD000A8420ED1CD6823F4006343EA05234D6982
:101BE00022F4405242EA05128D6923F4806342EAEE
:101BF00005124260C4614968C163036230BD0000E0
:101C0000002C014030B5026A22F480520262046A5C
:101C10004268C3690D6823F4E64343EA05238D68EF
:101C200024F4005444EA0534064DA84204D14D6919
:101C300022F4804242EA85124260C361496801642D
:101C4000046230BD002C014010B5036A046A24F020
:101C500001040462846924F0F00444EA021423F0CD
:101C60000A020A438461026210BD10B5036A23F0C0
:101C7000100303628369046A23F4704343EA023267
:101C800024F0A00343EA01118261016210BD00004B
:101C900070B5044600680169E26821F440511143BF
:101CA00001612169A0680843616908432168CA6825
:101CB00041F20C639A430243CA6020684169A269F9
:101CC00021F44071114341611E492068884202D1CC
:101CD000FEF73CFF01E0FEF729FF00EBC00101EB3E
:101CE0000012606864218000B2FBF0F3B3FBF1F3F3
:101CF0006FF018067343B2FBF0F5B2FBF0F605EB9C
:101D00008305322303EB0515B5FBF1F5B6FBF1F6C0
:101D100005F0F00505EB0615B2FBF0F6B2FBF0F0AE
:101D2000B0FBF1F06FF01802504306EB800003EBBC
:101D30000010B0FBF1F0216800F00F00284488602B
:101D400070BD0000003801402DE9F041984617466B
:101D50000E460446069D1DE0681C1BD02DB1FEF703
:101D6000B1FDA0EB0800A84214D92068C16821F495
:101D7000D071C1602068416921F0010141612020DA
:101D800084F83D0084F83E00002084F83C000320E5
:101D9000BDE8F0812068006836EA000004D0002029
:101DA000B842D9D00020F3E70120F9E7FEE70000B0
:101DB000F0B401EB4102502303EBC20293B20022C4
:101DC000244C164624F81260521C92B2142AF9D3FD
:101DD00031E000254778AF403F0601D53D2700E0C0
:101DE0001B2724F81270521C6D1CEDB292B2082D04
:101DF000F0D300250778AF403F0601D53D2700E02E
:101E00001B2724F81270521C6D1CEDB292B2082DE3
:101E1000F0D300258778AF403F0601D53D2700E08D
:101E20001B2724F81270521C6D1CEDB292B2082DC3
:101E3000F0D3491E89B20029CBD103E024F8126007
:101E4000521C92B29A42F9D3F0BC024A00210248D5
:101E5000FFF71CBA900500207C0000202DE9F0411E
:101E600001EB4102502303EBC20293B200222E4C3D
:101E7000964600BF24F812E0521C92B2142AF9D3FD
:101E800040E0491E89B2002501EB410717EB00062F
:101E900096F801C00CFA05FC5FEA0C6C02D54FF015
:101EA0003D0C01E04FF01B0C24F812C0521C6D1CBD
:101EB000EDB292B2082DEBD35FF0000510F807C029
:101EC0000CFA05FC5FEA0C6C02D54FF03D0C01E00A
:101ED0004FF01B0C24F812C0521C6D1CEDB292B2D4
:101EE000082DEBD30025B778AF403F0601D53D273D
:101EF00000E01B2724F81270521C6D1CEDB292B248
:101F0000082DF0D30029BCD104E000BF24F812E072
:101F1000521C92B29A42F9D3BDE8F041024A002124
:101F20000248FFF7B3B90000900500207C000020B4
:101F30000FB4054B10B503A9044A029800F028F825
:101F400010BC5DF814FB0000E520000838000020FC
:101F50000907090E002804DB00F1E02080F80014D6
:101F6000704700F00F0000F1E02080F8141D70476A
:101F700002E008C8121F08C1002AFAD17047704752
:101F8000002001E001C1121F002AFBD170470000B0
:101F90002DE9FF4F89B09B460446002506E0252821
:101FA0000BD05A460B999047641C6D1C2078002872
:101FB000F5D10DB02846BDE8F08F0027B8460122C4
:101FC000474900E0074314F8013F203B02FA03F0C1
:101FD0000842F7D120782E2819D114F8010F47F0C4
:101FE00004072A280ED06FF02F022078A0F13001CC
:101FF00009290CD808EB880102EB410100EB01082C
:10200000641CF2E70A98641C50F8048B0A9020784C
:102010000028CED0642808D0692806D075281ED0A4
:102020005A460B9990476D1C58E00A994FF00A09DF
:1020300001C90A91002802DA40422D2102E0390547
:1020400004D52B218DF82010012103E0F90704D0DD
:102050002021F7E78A4608AE0DE00021FAE70A9949
:102060004FF00A0901C90A91F7E74946FEF77CF8E3
:10207000303106F8011D0028F7D1ADEB060000F164
:102080002009780701D44FF00108C84502DDA8EB0C
:10209000090000E000208046002706E008A85A4614
:1020A000C05D0B9990476D1C7F1C5745F6DB04E023
:1020B00030205A460B9990476D1CB8F10001A8F1E9
:1020C0000108F5DC05E016F8010B5A460B9990471C
:1020D0006D1CB9F10001A9F10109F4DC641C65E78C
:1020E0000928010013B54FF0FF3301226946024869
:1020F000FFF74EFA00981CBD08010020FEF7F0FB28
:10210000FFF70DFCFFF7B4FAFFF79CFAFFF706FBA9
:10211000FFF74EFBB5A0FFF70BFFDFF8E0920020C2
:10212000B74AA9F8020009F1180EA2F1300483465B
:10213000A9F804B0B9F802804D4608EB48018E18A2
:1021400001EB0E03A888924601EB000C1F5C37548C
:10215000401C80B224F81C70A8800328F2D308F138
:1021600001081FFA88F0A9F802000528E0D3A34966
:10217000DFF8908202220A314046FFF739FB9F4F79
:10218000A1A00A373E463988FFF7D2FE71889FA08A
:10219000FFF7CEFE31883E1D3088814239D17888E4
:1021A0007188884235D19BA0FFF7C2FE94490F2267
:1021B00030399D48FFF71CFBD8464E46A9F802B0BF
:1021C000708834F8101099A0FFF7B2FE7088401C98
:1021D00080B270800F28F3D395A0FFF7A9FEA6F870
:1021E0000280D446A6F80480708800EB400303EB1D
:1021F0000C02B1885F1814F817705754491C89B243
:10220000B1800329F5D3401C80B270800528E9D342
:1022100045E088A0FFF78CFE784902220E31474640
:102220004046FFF7F3FA754902220E313846FFF7B0
:10223000DFFA5F465846A9F802B080B236F81010AF
:102240007AA0FFF775FEB9F80200401C80B2A9F829
:1022500002000228F1D376A0FFF76AFE6849724EA9
:102260000F2230393046FFF7D1FA65490F22303955
:102270003046FFF7BDFA3846A9F8027080B234F84C
:1022800010106AA0FFF754FEB9F80200401C80B29B
:10229000A9F802000F28F1D365A0FFF749FE5748BF
:1022A0000821801DFFF784FD0520FEF77FF9052139
:1022B0005348FFF7D3FD0520FEF778F9DFF83C918E
:1022C00009F112094D4D2888012804D00228F9D1BE
:1022D0000120688059E0A5F802B0A84615E000BFCB
:1022E00000EB4000A1F804B0CC4600EB0A0388885C
:1022F0001E181D5C2CF81050F7781F54401C80B23B
:10230000F57088800328F2D34A80B8F8020041466D
:10231000421C052AE4D305213948FFF79FFDC82058
:10232000FEF744F94546A8F802B0D4464FEA0B0838
:10233000A5F80480688800EB400303EB0C02A98831
:102340005F18565C491C89B224F81760A9800329DC
:10235000F5D3401C80B268800528E9D339A03AE063
:1023600000EB4000A5F804B0CC4600EB0A02A888B8
:102370001618135C2CF81030F7781754401C80B2F4
:10238000F370A8800328F2D369806888411C05296E
:10239000E6D305211A48FFF761FDC820FEF706F9CC
:1023A000A5F802B0D446D846A5F80480688800EBAA
:1023B000400303EB0C02A9885F18565C491C89B2E4
:1023C00024F81760A9800329F5D3401C80B26880E7
:1023D0000528E9D31FA0FFF7ABFD09490F223039CB
:1023E0001148FFF713FAA5F800806BE7B4AEBFDA27
:1023F000B4F2D3A1D5FDB3A3210D0A000000002043
:102400006C000020004000082564090025640D0AC6
:1024100000000000726561642066726F6D20666C5A
:102420006173680D0A000000004200082564200066
:102430000D0A0000696E697420666C6173680D0A8C
:10244000000000006B657931207072657373200D98
:102450000A0000006B657932207072657373200D7D
:102460000A00000000000000000000000102030458
:102470000607080900000000010203049C2400086C
:10248000000000203C000000701F0008D824000855
:102490003C0000206C0D0000801F000800000000C0
:1024A000000000000000000000000B000B00000016
:1024B0000000000032E132FA327D8347CD4475F9E5
:1024C000D6EBFF000100000010000000000000003B
:0824D0000024F40000000000EC
:04000005080000ED02
:00000001FF
