:020000040800F2
:10000000B80D0020010100080F180008671600084D
:100010000D180008B9010008E11D000800000000EB
:100020000000000000000000000000003D19000872
:10003000F301000800000000111800083F19000833
:100040001B0100081B0100081B0100081B01000820
:100050001B0100081B0100081B010008F501000836
:10006000FB0100081B0100081B0100081B01000820
:100070001B0100081B0100081B010008BD0100084E
:100080001B0100081B0100081B0100081B010008E0
:100090001B0100081B0100081B0100081B010008D0
:1000A0001B0100081B0100081B0100081B010008C0
:1000B0001B0100081B0100081B0100081B010008B0
:1000C0001B0100081B0100081B0100081B010008A0
:1000D0001B0100081B0100081B0100081B01000890
:1000E0001B0100081B0100081B010008DFF80CD0F1
:1000F00000F050F80048004731210008B80D0020FA
:100100000648804706480047FEE7FEE7FEE7FEE7B1
:10011000FEE7FEE7FEE7FEE7FEE7FEE7A1190008BF
:10012000ED000008202A04DB203A21FA02F0002129
:10013000704721FA02F3D040C2F1200291400843F7
:1001400019467047D2B201E000F8012B491EFBD2DC
:1001500070470022F6E710B513460A4604461946D2
:10016000FFF7F0FF204610BD30B50B4601460020DA
:100170002022012409E021FA02F59D4205D303FA69
:1001800002F5491B04FA02F52844151EA2F10102EA
:10019000F1DC30BD064C074D06E0E06840F001039D
:1001A00094E8070098471034AC42F6D3FFF7A2FF5B
:1001B0002425000844250008FEE70000014800F05F
:1001C000E5B80000D400002030B590F8405001247C
:1001D000AC40C56B6C60046863604368102B0368B7
:1001E00003D099600068C26030BD9A600068C16049
:1001F00030BD7047022000F067BA042000F064BAF6
:1002000072B6FEE7044B0022DA61044A136943F038
:10021000010313610180704798090020002002400B
:1002200014480022C168CB06134904D5CA6942F0BC
:100230000202CA611022C3685B0705D5CB6943F08F
:100240000103CB6142F00402C369DB0707D0CB692D
:1002500043F00403CB61C16921F00101C161A2F542
:100260008071013901D0C2607047C16921F001017C
:10027000C1617047002002409809002070B5054612
:1002800000F024FB0646114C09E0681C07D025B19C
:1002900000F01CFB801BA84201D9032070BDE06860
:1002A000C007F2D1E068800601D52020E060E06858
:1002B000C00605D4E069C00702D1E068400703D555
:1002C000FFF7AEFF012070BD002070BD002002408E
:1002D000064A0021D16106490A6942F002020A6118
:1002E0004861086940F040000861704778050020C7
:1002F0000020024010B590F821100024022903D0FC
:100300000421816301243DE001680A6822F00E02A5
:100310000A6001680A6822F001020A601A4A01684C
:10032000914201D1012121E0174A1432914201D1B9
:1003300010211BE0144A2832914201D1891515E0A1
:10034000114A3C32914201D189140FE00E4A5032D9
:10035000914202D14FF4803108E00B4A643291425D
:1003600002D14FF4801101E04FF08071064A083A43
:100370005160012180F82110002180F82010416B8C
:1003800001B18847204610BD080002402DE9F05F0A
:10039000C16B0C6801680B68D0F840C0042202FAF7
:1003A0000CF2494DDFF824A1494E4A4FDFF828B13D
:1003B000DFF828E122422CD05A072AD50A68920693
:1003C00003D40A6822F004020A600168A94201D13C
:1003D000042219E0514501D1402215E0B14202D179
:1003E0004FF4806210E0B94202D14FF480420BE03A
:1003F000594502D14FF4802206E0714502D14FF4F5
:10040000800201E04FF080622F4908394A60C16ADA
:100410003BE04FF0020808FA0CF818EA040F4FF01E
:1004200000094FF0010235D05FEA837832D50B68BE
:100430009B0605D40B6823F00A030B6080F821208B
:100440000168A94201D1022219E0514501D12022BF
:1004500015E0B14202D14FF4007210E0B94202D16E
:100460004FF400520BE0594502D14FF4003206E040
:10047000714502D14FF4001201E04FF000721249B1
:1004800008394A6080F82090816A00291AD0BDE8B6
:10049000F05F0847082505FA0CF5254212D01B0726
:1004A00010D50B6823F00E030B6090F84010C36B5F
:1004B00002FA01F15960826380F8212080F82090CF
:1004C000016BE2E7BDE8F09F080002401C0002401B
:1004D0003000024044000240580002406C000240DC
:1004E00030B528B308C8134914221944B1FBF2F1FE
:1004F0008900C16310498163022141771A6843F67C
:10050000F0718A43D0E900142143D0E902452C431D
:1005100021430469214344692143846921431143F0
:10052000196000214163012242770177084630BDFE
:10053000012030BDF8FFFDBF0000024070B5044649
:1005400090F82000002501280CD0012084F820001C
:1005500094F821600020012E06D084F820000225A6
:10056000284670BD022070BD022684F82160A06379
:100570002068066826F0010606602046FFF724FE84
:10058000E06A00282068016802D041F00E0106E010
:1005900021F0040101602068016841F00A01016056
:1005A0002068016841F001010160D9E770B5044697
:1005B00000F08CF90546601C02D004480078044421
:1005C00000F084F9401BA042FAD370BD3000002037
:1005D0000348016941F0800101610020704700007B
:1005E000002002402DE9F05F07461C4888460024A1
:1005F000017E15461E46012909D00121814601765A
:100600004CF2503A5046FFF739FE18B122E0022072
:10061000BDE8F09F012F02D0022F00D00427D3465F
:10062000DFF83CA0220128463146FFF77BFD81B26E
:1006300008EB4400FFF7E6FD5846FFF71FFEDAF827
:10064000102022F00102CAF8102018B9641CE4B28C
:10065000BC42E7D3002289F81820D9E79809002086
:1006600000200240064900200A69120607D5054A03
:100670004A60054A4A600969090600D501207047A9
:100680000020024023016745AB89EFCD10B5044639
:100690000A20FFF78BFF0A480A4B4FF40051022C47
:1006A00009D0042C0AD1022202800022BDE81040A9
:1006B000184600F005B901220280F7E710BD0000DE
:1006C0000000002000100140044910B50A680242F1
:1006D00002D00860FFF7DAFF10BD000014040140EB
:1006E0002DE9F84FDFF8B891002409F1040A0AF166
:1006F000040B23460F270BF1040EC9E00125A5408A
:100700002A40AA427DD1674ED1F804C0ACEB06085E
:10071000B44532D014DCBCF1030F3AD009DCBCF193
:10072000000F2AD0BCF1010F1CD0BCF1020F31D157
:100730001DE0BCF1110F17D0BCF1120F2AD119E046
:10074000B8F5881F19D006DCB8F5803F15D0B8F58C
:10075000801F1FD111E0B8F5001F0ED0B8F5041F9F
:1007600018D10AE0CB6815E0CB681B1D12E0CB68FE
:1007700008330FE0CB680C330CE08B682BB1012BF6
:100780004FF0080303D0456104E0042302E0056153
:1007900000E00023FF2A01D8064601E000F104062C
:1007A0004FEA840501D9A5F12005D6F8008007FAA3
:1007B00005FC28EA0C0803FA05F548EA0508C6F81E
:1007C00000804D68ED0062D5374DAE6946F00106F8
:1007D000AE61AD6924F0030605F001050095334DC7
:1007E00006EB050CDCF80850A607360F07FA06F8EA
:1007F00025EA0805DFF8B880404503D14FF000082E
:1008000017E044E0DFF8AC80404502D14FF001082A
:100810000FE0DFF8A480404502D14FF0020808E065
:10082000DFF89880404502D14FF0030801E04FF017
:10083000040808FA06F848EA0508CCF808804D686C
:10084000D9F80060ED034D4601D5164300E096430C
:100850002E604D68DAF80060AD03554601D51643A9
:1008600000E096432E604D68DBF80060ED025D46C7
:1008700001D5164300E096432E604D68DEF8006017
:10088000AD02754601D5164300E096432E60641C08
:100890000D682A46E5407FF431AFBDE8F88F0000CF
:1008A000000401400000111000100240000001404F
:1008B00000080140000C01400010014000140140FC
:1008C0000AB1016170470904FBE700000148806834
:1008D000704700003000002002488168027811440F
:1008E0008160704730000020074810B5016841F072
:1008F00010010160032000F079F8002000F006F8F4
:1009000000F024F8002010BD0020024070B50D4D0D
:1009100004464FF47A712878B1FBF0F00A4909686F
:10092000B1FBF0F000F0F0FA48B9102C07D2002229
:100930002146501E00F03AF800206C6070BD012086
:1009400070BD0000300000203C0000200E4808B5BB
:10095000816941F001018161816901F0010100912A
:10096000C16941F08051C161C06900F080500090C0
:10097000052000F03BF80548416821F0E06141F0B6
:100980000071416008BD00000010024000000140FD
:10099000002809DB00F01F0201219140400980007E
:1009A00000F1E020C0F8001170470000F0B40E4BD9
:1009B0001B680C46C3F30223C3F10705042D00D9BD
:1009C0000425191D072901D2002300E0DB1E0126A2
:1009D00006FA05F1491E214099409E40761E1640B8
:1009E0003143F0BC01F0CEBA0CED00E0064900F056
:1009F000070208684FF6FF03184040EA0220034A46
:100A000010430860704700000CED00E00000FA059C
:100A10002DE9F0470F46050061D0434E306800F0E5
:100A20000700B84209D2306820F007003843306030
:100A3000306800F00700B84251D128683B4C81076C
:100A400012D5400703D5606840F4E0606060287804
:100A5000000703D5606840F4605060606068A96872
:100A600020F0F000084360602878C00728D068684C
:100A7000012810D02168022810D0890700292EDA19
:100A8000616821F0030101436160FFF71FFF8046A9
:100A900041F288390DE021688903EFE78901EDE72C
:100AA000FFF714FFA0EB0801494502D90320BDE878
:100AB000F0876068696800F00C00B0EB810FEFD13F
:100AC000306800F00700B8420BD9306820F007000A
:100AD00038433060306800F00700B84201D0012090
:100AE000E5E72878400705D56068E96820F4E0600C
:100AF000084360602878000706D56068296920F4FB
:100B0000605040EAC100606000F038F86168084A4F
:100B1000C1F30311515CC8400649086006480068EB
:100B2000FFF7F4FE0020C2E7002002400010024060
:100B30000C2500083C000020340000200448054932
:100B400000684968044AC1F30221515CC8407047FB
:100B50003C000020001002401C2500080448054904
:100B600000684968044AC1F3C221515CC84070471B
:100B70003C000020001002401C25000812A185B096
:100B80000FC98DE80F0014A0144A00680490516842
:100B9000134801F00C03042B10D0082B0ED1C1F325
:100BA0008343C9031DF803000AD5516804AAC1F3A1
:100BB0004041515C0A4A5043B0FBF1F005B0704728
:100BC00008494843FAE7000002030405060708093C
:100BD0000A0B0C0D0E0F1010010200000010024055
:100BE00000127A0000093D002DE9F84F040070D092
:100BF0002078C04DC00749D06868C0F38100012843
:100C000007D06868C0F38100022809D16868C00372
:100C100006D52868800339D560680028E7D035E01C
:100C20006068B0F5803F0BD010B1B0F5A02F11D0A7
:100C3000286820F480302860286820F4802002E0B2
:100C4000286840F480302860606890B1FFF73EFE6D
:100C500006460AE0286840F480202860F0E700BFDC
:100C6000FFF734FE801B642873D828688003F7D50B
:100C70000CE0FFF72BFE064605E000BFFFF726FE5F
:100C8000801B6428F0D828688003F7D420789A4E17
:100C900080074FF001094FF0000839D5686810F05F
:100CA0000C0F07D06868C0F38100022809D168687A
:100CB000C00306D42868800714D52069012808D10C
:100CC00010E02069B0B1C6F80090FFF7FFFD0746BD
:100CD00005E00AE1FFF7FAFDC01B0228C4D8286826
:100CE0008007F7D52868616920F0F80040EAC10064
:100CF00028600DE0C6F80080FFF7E8FD074604E035
:100D0000FFF7E4FDC01B022823D828688007F7D42A
:100D1000207800072CD57948A169D9B1C0F8009096
:100D2000FFF7D4FD074604E0FFF7D0FDC01B022803
:100D30000FD8686A8007F7D571484FF4FA510068F8
:100D4000B0FBF1F0009000BF0098411E0091FAD274
:100D50000EE080E0C0F80080FFF7B8FD074604E031
:100D6000FFF7B4FDC01B022875D8686A8007F7D466
:100D70002078400760D5E8690027C00008D4E869FA
:100D800040F08050E861E869012700F08050009051
:100D90005C480168C90513D40168834641F4807139
:100DA0000160FFF793FD824606E000BFFFF78EFD6E
:100DB000A0EB0A0064284ED8DBF80000C005F5D58A
:100DC000E06801280AD008B1052813D0286A20F06D
:100DD00001002862286A20F0040002E0286A40F03E
:100DE00001002862E06841F2883B98B1FFF76EFD90
:100DF00082460BE0286A40F004002862EEE700BF5C
:100E0000FFF764FDA0EB0A0159455AD8286A80070C
:100E1000F6D50CE0FFF75AFD824605E0FFF756FDD8
:100E2000A0EB0A0159454CD8286A8007F6D41FB1B7
:100E3000E86920F08050E861E06988B36968C1F32F
:100E40008101022944D00228C6F8608004D0FFF74F
:100E50003DFD044638E034E0FFF738FD074604E086
:100E6000FFF734FDC01B02282BD828688001F7D477
:100E7000206AB0F5803F05D16868A16820F4003091
:100E800008436860D4E908010843696821F47411D3
:100E900008436860C6F86090FFF718FD044606E056
:100EA00025E000BFFFF712FD001B022809D82868C3
:100EB0008001F7D51BE000BFFFF708FD001B0228EB
:100EC00002D90320BDE8F88F28688001F4D40EE031
:100ED0000128F7D06868226A00F48031914204D179
:100EE000616A00F47010884201D00120EAE7002016
:100EF000E8E7000000100240000042428004424245
:100F00003C0000200070004010B5401EB0F1807F12
:100F100001D3012010BD4FF0E02460610F21601764
:100F200001F030F80020A06107202061002010BDF2
:100F300070B590F83C20012A26D0012480F83C406E
:100F4000022280F83D2003685A689D6822F07006EE
:100F50000A6832435A600D4B02689A4208D0B2F1D7
:100F6000804F05D00A4B9A4202D00A4B9A4204D1D4
:100F7000496825F080031943916080F83D400021C5
:100F800080F83C10084670BD022070BD002C014066
:100F9000000400400008004010B5040003D094F89D
:100FA0003D0010B107E0012010BD002084F83C0096
:100FB000204600F01FF8022084F83D00211D206823
:100FC00000F0F0FC012084F8460084F83E0084F82C
:100FD0003F0084F8400084F8410084F8420084F81F
:100FE000430084F8440084F8450084F83D00002064
:100FF00010BD000038B505460068B0F1804F20D123
:101000001048C16941F00101C161C0690F4C00F095
:10101000010000900C4820601020606000208021BA
:10102000C4E9020149002161890061612021C4E90C
:1010300006102046FFF754FA08B1FFF7E1F86C629A
:10104000656238BD0010024058000240D400002004
:1010500070B5044690F83C00012817D0012584F8AB
:101060003C50022084F83D002068826822F077021C
:1010700022F47F4282600868502830D00DDC20289E
:101080004DD005DC98B310283BD148E0022070BD5C
:10109000302844D0402834D139E0602828D0702846
:1010A00006D0B0F5805F2CD0B0F5005F29D10AE002
:1010B000CB68D1E90121206800F02CFD206881680F
:1010C00041F0770109E0CB68D1E90121206800F007
:1010D00021FD2068816841F48041816011E0CA6887
:1010E0004968206800F0CAFD5021206807E016E03A
:1010F000CA684968206800F0D2FD6021206800F0CD
:1011000013FD84F83D50002084F83C0070BDCA688F
:101110004968206800F0B2FD40212068EFE72268AE
:1011200001461046EBE7704700B585B000210091FD
:101130000191029103910068B0F1804F11D10A48EA
:10114000816941F0040181618069694600F0040011
:101150000490012000900220019003900348FFF7C3
:10116000BFFA05B000BD00000010024000080140B9
:1011700070B5044690F83C000D4601280AD00120C5
:1011800084F83C0042B1042A18D0082A2AD00C2A3C
:101190004DD139E0022070BD206800F0CDFC206800
:1011A000816941F0080181612068816921F00401B1
:1011B0008161206881692A69114311E0206800F08B
:1011C000E3FC2068816941F40061816120688169E4
:1011D00021F480618161206881692A6941EA0221E4
:1011E000816124E0206800F0FBFC2068C16941F0C7
:1011F0000801C1612068C16921F00401C161206852
:10120000C1692A69114311E0206800F015FD2068CA
:10121000C16941F40061C1612068C16921F4806144
:10122000C1612068C1692A6941EA0221C1610020C7
:1012300084F83C0070BD10B5040003D094F83D0064
:1012400010B107E0012010BD002084F83C002046CA
:1012500000F01EF8022084F83D00211D206800F0F7
:10126000A1FB012084F8460084F83E0084F83F008A
:1012700084F8400084F8410084F8420084F8430078
:1012800084F8440084F8450084F83D00002010BD37
:10129000704700000021014800F0C6B88C00002013
:1012A000704700002DE9F04117460D0004460CD0B0
:1012B000042D11D0082D16D094F84100022819D021
:1012C00094F84100012818D09AE094F83E000228D2
:1012D00010D094F83E00F5E794F83F00022809D0BA
:1012E00094F83F00EEE794F84000022802D094F80A
:1012F0004000E7E70220BDE8F0810FB9002B7FD165
:101300004349444E444A022045B1042D16D0082DCD
:1013100024D084F841000C2D3AD164E084F83E00DA
:10132000606A8162606A3946C662606A02632268E6
:10133000606A3432FFF702F9F0BB1FE084F83F0027
:10134000A06A8162A06A3946C662A06A0263226806
:10135000A06A3832FFF7F2F870BB14E084F840005E
:10136000E06A8162E06A3946C662E06A0263226826
:10137000E06A3C32FFF7E2F8F0B92FE02068C1687C
:1013800041F4007103E02068C16841F48061C160EC
:1013900001222946206800F03BFB20492068884252
:1013A00003D1426C42F400424264206888420AD071
:1013B000B0F1804F07D000E022E01949884202D006
:1013C0001849884204D1816801F00701062903D039
:1013D000016841F00101016000208CE72068C168CC
:1013E00041F40061D3E7206B8162206B3946C6620D
:1013F000206B02632268206B4032FFF79FF808B130
:10140000012078E72068C16841F48051BFE70000FF
:101410002B1A0008891A0008C11A0008002C014084
:10142000000400400008004070B5044600680D004C
:1014300006D0042D0AD0082D3AD00C2D0DD13DE058
:10144000C16821F40071C160606A04E0C16821F4E0
:101450008061C160A06AFEF74DFF00222946206826
:1014600000F0D6FA1D4B41F2111120688A10984203
:1014700009D1036A0B4206D1036A134203D1436CBC
:1014800023F4004343642068036A0B4206D1016AD7
:10149000114203D1016821F00101016001209DB1D9
:1014A000042D14D0082D15D084F84100002070BD03
:1014B000C16821F40061C160E06ACCE7C16821F431
:1014C0008051C160206BC6E784F83E00EEE784F8E7
:1014D0003F00EBE784F84000E8E70000002C014003
:1014E00070B5040004D094F83D00002510B106E06A
:1014F000012070BD84F83C50204600F023F82420E1
:1015000084F83D002068C16821F40051C160204684
:1015100000F0D8FB2068016921F490410161206846
:10152000416921F02A0141612068C16841F40051FC
:10153000C1602564202084F83D0084F83E0000202E
:1015400070BD000030B585B0002400940194029471
:10155000039400681449884224D11448816941F4F5
:1015600080418161816901F480410491816941F088
:101570000401816180690E4D00F0040004904FF475
:1015800000700090022001900320039069462846D5
:10159000FFF7A6F82815CDE900046946284602940D
:1015A000FFF79EF805B030BD003801400010024042
:1015B000000801402DE9F843044690F83D001F461D
:1015C00016460D4620284CD1C5B1BEB194F83C005A
:1015D000012846D0012084F83C004FF00008C4F8F0
:1015E0004080212084F83D00FFF770F9A6848146F1
:1015F000E684A068B0F5805F03D004E00120BDE878
:10160000F883206928B12E465FF0000584F83C80FD
:101610000EE00026FAE78021204600F0AFFBA0B9DB
:10162000AEB116F8010B21684860E08C401EE084E2
:10163000E08C4B464FF0000200970028EBD14FF0B2
:101640004001204600F09AFB30B10320D7E735F87F
:10165000020BC0F30800E6E7202084F83D000020DC
:10166000CDE70220CBE7FEE7094808B5416941F024
:10167000010141614069002200F001000090114623
:101680000F20FFF793F9BDE808400F20FFF780B95E
:101690000010024030B585B000200090019002900B
:1016A00003902348816941F010018161816901F053
:1016B00010010491816941F020018161816901F08B
:1016C00020010491816941F0040181618069194D13
:1016D00000F004004FF400540490002221462846F4
:1016E000FFF7EEF8009401240220CDE9024069469C
:1016F00001942846FEF7F4FF062000900E48CDE93D
:10170000010469460D48FEF7EBFF00220121072086
:10171000FFF74CF90720FFF73BF9002201210820D1
:10172000FFF744F90820FFF733F905B030BD00009A
:10173000001002400010014000002110000801408C
:1017400010B58EB000240794089409940A940B9461
:101750001C2168460C94FEF7FCFC1D484FF08041AC
:10176000C0E900145921C0E9024104618461FFF716
:1017700013FC08B1FEF744FD4FF48050079007A911
:101780001348FFF765FC08B1FEF73AFD1048FFF774
:1017900052FD08B1FEF734FD0B940BA90C480C94D4
:1017A000FFF7C6FB08B1FEF72BFD6020CDE9000472
:1017B00002940022694606480494FFF7D9FC08B158
:1017C000FEF71EFD0248FFF7AFFC0EB010BD000093
:1017D0008C0000200C4810B50A4901604FF4E1313B
:1017E0004160002181600C22C160C0E90412816166
:1017F000C161FFF775FE002803D0BDE81040FEF779
:10180000FFBC10BD0038014018010020FEE7FEE7D4
:101810007047000010B5002306E000BF30F8024B0F
:1018200021F813405B1C9BB29342F7D310BD00001C
:101830002DE9F05FA0F1006415468A468346B4F5B1
:10184000803F5FD2FEF70EFFA70AC4F34806C6F535
:101850000074A54200D82C46DFF8AC904FF0006031
:1018600000EB872080464FF400722749FFF7D2FF34
:1018700000204FF6FF7106E0331839F813208A4232
:1018800003D1401C80B2A042F6D3A0422ED24046E3
:10189000FEF71EFD4CF25030FEF7F0FC1B480169CC
:1018A00021F0020101610020494606E03AF81020CB
:1018B0008319401C21F8132080B2A042F6D31249AC
:1018C00040464FF4007200BF00F022F8A54215D048
:1018D000281B0AEB440A0BEB440B002685B24FF49D
:1018E00000747F1CA542B9D82C46B7E74CF25030A3
:1018F000FEF7C4FC224651465846E5E7BDE8F05FD6
:10190000FEF766BEBDE8F09F98050020002002406B
:101910002DE9F04116460F46054600240AE000BFB7
:1019200037F81420002329460120FEF75BFE641CD3
:10193000A4B2AD1CB442F3D3BDE8F0817047FEF70A
:10194000CBBF30B58FB028216846FEF702FC1421CA
:101950000AA8FEF7FEFB01210804CDE900100024CF
:10196000029402250491CDE907504FF4E01009904C
:101970006846FFF739F908B172B6FEE70F20CDE9E6
:101980000A054FF48060CDE90C4002210AA80E94AC
:10199000FFF73EF8002801D072B6FEE70FB030BD69
:1019A00070470000F0B50268164B174C174D4FF00A
:1019B0008047984205D0B84203D0A04201D0A84247
:1019C00003D122F070064A683243984205D0B842EB
:1019D00003D0A04201D0A84203D122F44074CA68C7
:1019E00022434C6922F08002224302608A68C2626C
:1019F0000A688262984201D109690163012141614B
:101A0000F0BD0000002C0140000400400008004030
:101A100010B501F01F030121046A99408C43046250
:101A2000016A9A401143016210BD10B5446A012158
:101A3000626A824205D121778069F8B984F83E1044
:101A40001CE0A26A824206D1022222778069A8B9EC
:101A500084F83F1012E0E26A824206D10422227723
:101A6000806958B984F8401008E0226B824205D1A1
:101A700008222277806908B984F841102046FFF7D0
:101A800009FC0020207710BD10B5446A616A8142CC
:101A900001D101200DE0A16A814201D1022008E0BC
:101AA000E16A814201D1042003E0216B814201D12E
:101AB000082020772046FFF7F3FB0020207710BD99
:101AC00010B5446A0121626A824203D1217784F809
:101AD0003E1019E0A26A824204D10220207784F8E5
:101AE0003F1011E0E26A824204D10420207784F89A
:101AF000401009E0226B824204D10820207784F84C
:101B0000411001E084F83D102046FFF70CFB002057
:101B1000207710BD10B5846842EA032224F47F4484
:101B20000A432243826010BD826822F070020A4399
:101B300042F007018160704730B5026A22F001026D
:101B40000262026A4368846924F073050C682C43BE
:101B500022F002058A682A430A4DA8420BD122F0DE
:101B60000805CA6823F440732A434D6922F0040231
:101B70001D438B692B434360846149684163026262
:101B800030BD0000002C014030B5026A22F0100286
:101B90000262026A436884690D6824F4E64444EAF8
:101BA00005248D6822F0200242EA05120B4DA8425E
:101BB0000ED1CD6822F0800242EA05124D6923F46D
:101BC000406343EA85038D6922F0400243EA8503BE
:101BD0004360846149688163026230BD002C01402A
:101BE00030B5026A22F480720262036A4268C469F4
:101BF00023F4007324F073050C682C438D6843EACA
:101C000005230C4DA8420ED1CD6823F4006343EAAE
:101C100005234D6922F4405242EA05128D6923F4EE
:101C2000806342EA05124260C4614968C16303628D
:101C300030BD0000002C014030B5026A22F4805211
:101C40000262046A4268C3690D6823F4E64343EA0A
:101C500005238D6824F4005444EA0534064DA84257
:101C600004D14D6922F4804242EA85124260C36188
:101C700049680164046230BD002C014010B5036A5C
:101C8000046A24F001040462846924F0F00444EA44
:101C9000021423F00A020A438461026210BD10B5E7
:101CA000036A23F0100303628369046A23F4704318
:101CB00043EA023224F0A00343EA01118261016287
:101CC00010BD000070B5044600680169E26821F4A7
:101CD0004051114301612169A068084361690843CB
:101CE0002168CA6841F20C639A430243CA602068C3
:101CF0004169A26921F44071114341611E49206884
:101D0000884202D1FEF72AFF01E0FEF717FF00EB41
:101D1000C00101EB0012606864218000B2FBF0F3A7
:101D2000B3FBF1F36FF018067343B2FBF0F5B2FBAF
:101D3000F0F605EB8305322303EB0515B5FBF1F552
:101D4000B6FBF1F605F0F00505EB0615B2FBF0F673
:101D5000B2FBF0F0B0FBF1F06FF01802504306EB6D
:101D6000800003EB0010B0FBF1F0216800F00F00E1
:101D70002844886070BD0000003801402DE9F04122
:101D8000984617460E460446069D1DE0681C1BD06B
:101D90002DB1FEF79BFDA0EB0800A84214D92068E6
:101DA000C16821F4D071C1602068416921F001014E
:101DB0004161202084F83D0084F83E00002084F832
:101DC0003C000320BDE8F0812068006836EA00008E
:101DD00004D00020B842D9D00020F3E70120F9E771
:101DE000FEE70000F0B401EB4102502303EBC20216
:101DF00093B20022244C164624F81260521C92B270
:101E0000142AF9D331E000254778AF403F0601D5C9
:101E10003D2700E01B2724F81270521C6D1CEDB208
:101E200092B2082DF0D300250778AF403F0601D5C8
:101E30003D2700E01B2724F81270521C6D1CEDB2E8
:101E400092B2082DF0D300258778AF403F0601D528
:101E50003D2700E01B2724F81270521C6D1CEDB2C8
:101E600092B2082DF0D3491E89B20029CBD103E0EC
:101E700024F81260521C92B29A42F9D3F0BC024A82
:101E800000210248FFF70EBA5C0100208C00002000
:101E90002DE9F04101EB4102502303EBC20293B262
:101EA00000222E4C964600BF24F812E0521C92B23B
:101EB000142AF9D340E0491E89B2002501EB4107FD
:101EC00017EB000696F801C00CFA05FC5FEA0C6CF3
:101ED00002D54FF03D0C01E04FF01B0C24F812C06E
:101EE000521C6D1CEDB292B2082DEBD35FF00005D1
:101EF00010F807C00CFA05FC5FEA0C6C02D54FF035
:101F00003D0C01E04FF01B0C24F812C0521C6D1C5C
:101F1000EDB292B2082DEBD30025B778AF403F0663
:101F200001D53D2700E01B2724F81270521C6D1CC0
:101F3000EDB292B2082DF0D30029BCD104E000BF6D
:101F400024F812E0521C92B29A42F9D3BDE8F04153
:101F5000024A00210248FFF7A5B900005C010020F9
:101F60008C0000200FB4054B10B503A9044A029859
:101F700000F028F810BC5DF814FB000019210008DF
:101F8000400000200907090E002804DB00F1E020D2
:101F900080F80014704700F00F0000F1E02080F896
:101FA000141D704702E008C8121F08C1002AFAD1A8
:101FB00070477047002001E001C1121F002AFBD1C9
:101FC000704700002DE9FF4F89B09B46044600256D
:101FD00006E025280BD05A460B999047641C6D1CCF
:101FE00020780028F5D10DB02846BDE8F08F0027F5
:101FF000B8460122474900E0074314F8013F203B5F
:1020000002FA03F00842F7D120782E2819D114F8EB
:10201000010F47F004072A280ED06FF02F02207816
:10202000A0F1300109290CD808EB880102EB41012D
:1020300000EB0108641CF2E70A98641C50F8048B5A
:102040000A9020780028CED0642808D0692806D0CD
:1020500075281ED05A460B9990476D1C58E00A9976
:102060004FF00A0901C90A91002802DA40422D21E5
:1020700002E0390504D52B218DF82010012103E061
:10208000F90704D02021F7E78A4608AE0DE00021C9
:10209000FAE70A994FF00A0901C90A91F7E7494698
:1020A000FEF762F8303106F8011D0028F7D1ADEBDC
:1020B000060000F12009780701D44FF00108C84557
:1020C00002DDA8EB090000E000208046002706E0C2
:1020D00008A85A46C05D0B9990476D1C7F1C574558
:1020E000F6DB04E030205A460B9990476D1CB8F19E
:1020F0000001A8F10108F5DC05E016F8010B5A46CD
:102100000B9990476D1CB9F10001A9F10109F4DCAC
:10211000641C65E70928010013B54FF0FF33012265
:1021200069460248FFF746FA00981CBD18010020D6
:10213000FEF7DAFBFFF705FCFFF7ACFAFFF794FABE
:10214000FFF7FEFAFFF746FBD2A0FFF70BFFDFF821
:1021500054930020D44BA9F8020009F1180EA3F102
:1021600030048346A9F804B0B9F80280484608EB69
:102170004802D61802EB0E0581889A4602EB010C44
:102180006F5C7754491C89B224F81C708180032944
:10219000F2D3C44908F101081FFA88F048800828E2
:1021A000E0D3C24F02220A313846FFF733FBBD4E5F
:1021B000BFA00A363188FFF7D5FE7188BDA0FFF7B2
:1021C000D1FE351D30882988884240D170886988C1
:1021D00088423CD1B9A0FFF7C5FEB3491822303977
:1021E000BB48FFF717FB5E46A9F802B0B9F802003A
:1021F00034F81010B7A0FFF7B5FEB9F80200401C84
:1022000080B2A9F802001828F0D3B3A0FFF7AAFE05
:10221000A9F802604FEA0A07A9F80460B9F80200B9
:1022200000EB400313EB0702B9F804105D1814F833
:1022300015505554491C89B2A9F804100329F3D349
:10224000401C80B2A9F802000828E5D346E0A3A00C
:10225000FFF788FE934902220E313E463846FFF7CB
:10226000E7FA904902220E313046FFF7D3FA5E4674
:10227000A9F802B0B9F8020035F8101095A0FFF7E0
:1022800071FEB9F80200401C80B2A9F802000228D1
:10229000F0D391A0FFF766FE83498D4D18223039A7
:1022A0002846FFF7C5FA8049182230392846FFF73B
:1022B000B1FAA9F8026000BFB9F8020034F81010B2
:1022C00084A0FFF74FFEB9F80200401C80B2A9F8C5
:1022D00002001828F0D380A0FFF744FE71480821BF
:1022E000801DFFF77FFD0520FEF760F908216E488D
:1022F000FFF7CEFD0520FEF759F9DFF8A89109F1A7
:102300001209684D2888012804D00228F9D101203B
:1023100068807AE0A5F802B0A84614E000EB40001F
:10232000A1F804B0CC4600EB0A0388881E181D5C97
:102330002CF81050F7781F54401C80B2F57088803C
:102340000328F2D34A80B8F802004146421C082A0A
:10235000E4D308215448FFF79BFDC820FEF726F977
:102360004546A8F802B0D4464FEA0B08A5F8048009
:10237000688800EB400303EB0C02A9885F18565CE9
:10238000491C89B224F81760A9800329F5D3401CA1
:1023900080B268800828E9D354A0FFF7E3FD4249E2
:1023A0004B4E182230393046FFF742FA3E49182288
:1023B00030393046FFF72EFA4646A5F80280688885
:1023C00034F8101043A0FFF7CDFD6888401C80B2A0
:1023D00068801828F3D340A0FFF7C4FD2E8090E753
:1023E00000EB4000A5F804B0CC4600EB0A02A88838
:1023F0001618135C2CF81030F7781754401C80B274
:10240000F370A8800328F2D369806888411C0829EA
:10241000E6D308212448FFF73BFDC820FEF7C6F8A5
:10242000A5F802B0D446D846A5F80480688800EB29
:10243000400303EB0C02A9885F18565C491C89B263
:1024400024F81760A9800329F5D3401C80B2688066
:102450000828E9D329A0FFF785FD13491C4E18224F
:1024600030393046FFF7E4F90F4918223039304649
:10247000FFF7D0F94646A5F80280688834F81010B6
:1024800014A0FFF76FFD6888401C80B26880182890
:10249000F3D3A0E7B4AEBFDAB4F2D3A1D5FDB3A3B2
:1024A000210D0A00000000207400002000F0000848
:1024B0002564090025640D0A00000000726561644E
:1024C0002066726F6D20666C6173680D0A000000F3
:1024D00000F20008256420000D0A0000696E69748E
:1024E00020666C6173680D0A000000006B6579312D
:1024F000207072657373200D0A0000006B657932DD
:10250000207072657373200D0A0000000000000047
:102510000000000001020304060708090000000093
:1025200001020304442500080000002044000000CC
:10253000A41F00088825000844000020740D000036
:10254000B41F0008000000000000000000000000B0
:1025500000000B000C00000000000000FFFFFFFF68
:10256000000000FF000000FF00FFFFFF00FFFFFF73
:1025700000FF6100010000001000000000000000EA
:082580000024F400000000003B
:04000005080000ED02
:00000001FF
